:0200000079295C
:06000600000000000800EC
:10000C000F3083120313FC004730FD00FD0B0C284E
:0A001C00FC0B0C2800000000080097
:0E002600213083120313FD00FD0B1728080084
:1000340083160313B41B2128831207132328831266
:1000440007178316341B2928831287122B2883123F
:1000540087168316B41A31288312071233288312A1
:1000640007168316341A3928831287113B28831202
:10007400871569183F28871440288710071503201F
:1000840007118316B4194928831207134B288312C6
:1000940007178316341951288312871253288312A1
:1000A40087168316B4185928831207125B28831203
:1000B4000716831634186128831287116328831264
:1000C400871569186728871468288710071503207F
:0E00D4000711691C6F280620702813200800F1
:1000E200063083120313FD00FD0B75280000080083
:1000F2008312031369106F088316B4001A2069145F
:020102000800F3
:0E0104008312031368088A006708820008004F
:1001120083120313EF018316B101B2011030B30051
:10012200043032020318C328F03083128600803074
:10013200F0007008063E840083163309F000700850
:100142008000032003200F3083120605F0007008A0
:100152008316B00070080319BD2831088312EF001E
:10016200831630080319BA28B00CB0138312EF0AB1
:10017200B12804308316B200B30D33100430B10736
:0C018200B20A912883126F08F0000800F8
:10018E00D928803083120313EB00EC28C030EB002B
:10019E00EC289430EB00EC28D430EB00EC288030C7
:1001AE00EB00EC28831203136B08013A0319C828DD
:1001BE006B08023A0319CD286B08033A0319D028AD
:1001CE006B08043A0319D328D6286C03F0006B0889
:1001DE00F0077008EB0070088316B4001A2069103F
:1001EE00EE016E086D0784000008031906296E08DB
:1001FE006D0784000008EF007920EE0AF8286914D4
:02020E000800E6
:10021000803083120313F0007008063E8400FF3024
:040220008000080052
:1002240089207008EB000F300605F00003191C2923
:0A023400712015296B08F000080086
:10023E0083160313071187108711071287120713EE
:10024E0083120711871007138712071287110620D2
:10025E00062006200716871507150320071106200E
:10026E000715032007110620071503200711062086
:10027E008711071503200711062007150320071104
:10028E0007120717071503200711062007138715F6
:10029E0007150320071187110715032007110620E4
:1002AE0007150320071187150715032007110620D0
:1002BE0087110715032007110717871607168715CD
:0C02CE0007150320071106206914080022
:1002DA0082208A110A128000840AE70A0319E80AAE
:0802EA00F003031D6D2908005B
:1002F200B422831603138501831285108316031714
:10030200880189018312871388131F210821013074
:100312008316B4001A200230FB000430FC00BA300D
:10032200FD00FD0B9229FC0B9229FB0B9229000088
:10033200A030EA000130EB000130EC006A08ED0069
:10034200C7205130EA000230EB000130EC006A08AD
:10035200ED00C7200430FB000C30FC003330FD0000
:10036200FD0BB129FC0BB129FB0BB12900000000E8
:1003720001308316B4001A200130EB000330EC0088
:100382005C30ED00C7200230EB000530EC00273076
:10039200ED00C720A60112217008A60070080319FB
:1003A200CC292908F0002A08F100F00DF10D701097
:1003B2007008203E8400260880000030A61BFF3013
:1003C200840A8000B230EF007920A90A0319AA0A30
:1003D2000230FB000430FC00BA30FD00FD0BEF29B7
:1003E200FC0BEF29FB0BEF29000080302A06F000FE
:1003F20080307002031DFF2903302902031CCB2920
:1004020000302106031D072A01302006031D372A6A
:1004120000302306031D0F2A05302206031D372A4A
:1004220000302506031D172A09302406031D372A2A
:100432008514A901AA0101308316B4001A200130E3
:10044200EB000230EC004130ED00C7200B30FB0026
:100452002630FC005D30FD00FD0B2D2AFC0B2D2A01
:10046200FB0B2D2A000000008510542AA201A301D3
:10047200A401A501A601A701A901AA010130EB006F
:100482000130EC002B30ED00C7200630FB001330AA
:10049200FC00AD30FD00FD0B4C2AFC0B4C2AFB0B83
:0A04A2004C2A000000008829552AAA
:1005680020308400473083120313F0005B30E7002B
:100578000230E8006D21A030840010308312F000B2
:0C058800A230E7000230E8006D210800FE
:0C04B60000340034003400340034003402
:0204C200003404
:0404C40020340034AC
:0404C80000340034C8
:1004CC0063346F346E347434723461347334653421
:1004DC00F1346134203469346E3463346F347234E3
:0C04EC00723465346334743461340034BD
:1004F800413463346334653473346F3420344334A3
:100508006F34723472346534633474346F34003445
:100518005034493443342034313436344634383452
:06052800383437340034C2
:10052E0043346F346E3474347234613473346534DE
:06053E006E34613400344C
:1005440043346F346E34743472346F346C34203406
:100554002034413463346334653473346F34003489
:040564002A34003401
:04400E00F22F000786
:00000001FF
